:020000020000FC
:10000000B9C018951895189518959FC11895189509
:10001000ACC11895189518951895189518951895B8
:100020001895189518952020200053617665640076
:100030006D004D004D4500004C0042706D3A0000CF
:100040005365633A00002F93FF1829E0001F2A959B
:1000500011F42F910895FF1CF11A18F4F10E8894F1
:10006000F5CF0894F3CF4F93EE24FF1841E1001F22
:10007000111F4A9511F44F910895EE1CFF1CE21ACE
:10008000F30A20F4E20EF31E8894F1CF0894EFCF28
:100090000F931F93889A899A8A9A8B9A8F9A8E9A2D
:1000A0009798969804E15ED013E003E015D002E043
:1000B00059D01A95D1F702E00FD001E053D008E2F1
:1000C00028D008E026D001E024D006E022D00CE0C1
:1000D00020D01F910F910895969A00FF909800FDEF
:1000E000909A01FF919801FD919A02FF929802FD6A
:1000F000929A03FF939803FD939A96980895979A7E
:100100000F930295E9DF0F91E7DFBB27AAEF27D016
:10011000089597980F930295DFDF0F91DDDF02E0DE
:1001200021D008950591003011F0E9DFFBCF08954B
:10013000EF921F93FF92EE241AE085DFE394FF9283
:100140000030D1F710E30F91010FD9DFEA94D1F716
:10015000FF901F91EF9008950068DBDF08951197DD
:10016000F1F708950F93B3E0A8EEF9DF0A95D9F7F8
:100170000F91089504E00EBF0FE50DBF4CD088DF4E
:1001800077D06BD050D005E3E7DFD2D0002DD0DFA1
:10019000002444279924AA243327112478946FD06B
:1001A000FECF042E0895C0E6D0E0C30F0882089564
:1001B000002021F033953A3008F0332708950CE2FF
:1001C000CBDFE6E2F0E0AEDF0CE2C6DF002DB0DF11
:1001D00008950F93992011F0091450F4902C09E020
:1001E000BBDFE6E2F0E09EDF09E0B6DF002DA0DF36
:1001F0000F9108950F93AA2011F00A1450F0A02C2B
:100200000DE0AADFE6E2F0E08DDF0DE0A5DF002DD6
:100210008FDF0F91089511243BE0C0E6D0E01992E2
:100220003A95E9F7089500E097DFE0E4F0E07ADF3F
:1002300008E092DFE0E3F0E075DF0CE08DDFE2E361
:10024000F0E070DF08E288DFEAE3F0E06BDF04E370
:1002500083DFE8E3F0E066DF08950F930BE00DBD68
:100260000CED0CBD03E00EBD04E009BF0F91089535
:10027000B898C09AB998C19ABA98C29A0895B19B91
:1002800003D0B29B13D008950F930FE265DF42D0E5
:10029000EAE2F0E047DF05E35FDFE6E2F0E042DFBD
:1002A00005E35ADF002D44DF0F910895DF92EF92AE
:1002B000FF920F931F932F933F93C0E6D0E00FE27E
:1002C0004BDFE4E3F0E02EDF01E346DFE6E2F0E0BF
:1002D00029DFDD240027112722273327FF24E99077
:1002E000EE2021F0D3940E0D1F1DF9CFDD2051F02B
:1002F00030E02D2DB8DE0F931F9301E32DDF1F910A
:100300000F9116DF3F912F911F910F91FF90EF906A
:10031000DF9008952F931F9320E010E0E199FECF26
:100320002FBB1EBB0DBAE29AE19A1F912F9108953F
:100330002F931F9320E010E0E199FECF2FBB1EBB4F
:10034000E09A0DB21F912F9108955FB6F8940F9324
:100350000EB506FF01C003C003E80EBD03C0439500
:1003600003EC0EBD0F915FBE1895F8940F9304E057
:10037000F3DEE6E2F0E0D6DE04E0EEDE012DD8DECC
:1003800013940CE3101640F00CDF0DDF11DF17DFC4
:1003900020DF30DF4427112403EC0EBD04E209BF47
:0E03A0000BE00DBD0CED0CBD0F91789418957F
:00000001FF
